{"contracts/Random.sol":{"Random":{"abi":[{"inputs":[],"name":"Generate_Number","outputs":[{"internalType":"uint8","name":"","type":"uint8"}],"stateMutability":"nonpayable","type":"function"},{"inputs":[],"name":"rand_num","outputs":[{"internalType":"uint8","name":"","type":"uint8"}],"stateMutability":"view","type":"function"}],"evm":{"bytecode":{"linkReferences":{},"object":"608060405234801561001057600080fd5b50610345806100206000396000f3fe608060405234801561001057600080fd5b50600436106100365760003560e01c8063678892c01461003b5780639897c24014610059575b600080fd5b610043610077565b6040516100509190610124565b60405180910390f35b610061610088565b60405161006e9190610124565b60405180910390f35b60008054906101000a900460ff1681565b6000804340905060004282336040516020016100a69392919061020f565b6040516020818303038152906040528051906020012060001c905060016014826100d0919061027b565b6100da91906102db565b6000806101000a81548160ff021916908360ff16021790555060008054906101000a900460ff169250505090565b600060ff82169050919050565b61011e81610108565b82525050565b60006020820190506101396000830184610115565b92915050565b6000819050919050565b6000819050919050565b61016461015f8261013f565b610149565b82525050565b6000819050919050565b6000819050919050565b61018f61018a8261016a565b610174565b82525050565b600073ffffffffffffffffffffffffffffffffffffffff82169050919050565b60006101c082610195565b9050919050565b60008160601b9050919050565b60006101df826101c7565b9050919050565b60006101f1826101d4565b9050919050565b610209610204826101b5565b6101e6565b82525050565b600061021b8286610153565b60208201915061022b828561017e565b60208201915061023b82846101f8565b601482019150819050949350505050565b7f4e487b7100000000000000000000000000000000000000000000000000000000600052601260045260246000fd5b60006102868261013f565b91506102918361013f565b9250826102a1576102a061024c565b5b828206905092915050565b7f4e487b7100000000000000000000000000000000000000000000000000000000600052601160045260246000fd5b60006102e68261013f565b91506102f18361013f565b9250828201905080821115610309576103086102ac565b5b9291505056fea26469706673582212208b1704a97a43bade9a58a562bd46ee1cebedf1e5c7cbd1e26242f6e804572c4d64736f6c63430008110033","opcodes":"PUSH1 0x80 PUSH1 0x40 MSTORE CALLVALUE DUP1 ISZERO PUSH2 0x10 JUMPI PUSH1 0x0 DUP1 REVERT JUMPDEST POP PUSH2 0x345 DUP1 PUSH2 0x20 PUSH1 0x0 CODECOPY PUSH1 0x0 RETURN INVALID PUSH1 0x80 PUSH1 0x40 MSTORE CALLVALUE DUP1 ISZERO PUSH2 0x10 JUMPI PUSH1 0x0 DUP1 REVERT JUMPDEST POP PUSH1 0x4 CALLDATASIZE LT PUSH2 0x36 JUMPI PUSH1 0x0 CALLDATALOAD PUSH1 0xE0 SHR DUP1 PUSH4 0x678892C0 EQ PUSH2 0x3B JUMPI DUP1 PUSH4 0x9897C240 EQ PUSH2 0x59 JUMPI JUMPDEST PUSH1 0x0 DUP1 REVERT JUMPDEST PUSH2 0x43 PUSH2 0x77 JUMP JUMPDEST PUSH1 0x40 MLOAD PUSH2 0x50 SWAP2 SWAP1 PUSH2 0x124 JUMP JUMPDEST PUSH1 0x40 MLOAD DUP1 SWAP2 SUB SWAP1 RETURN JUMPDEST PUSH2 0x61 PUSH2 0x88 JUMP JUMPDEST PUSH1 0x40 MLOAD PUSH2 0x6E SWAP2 SWAP1 PUSH2 0x124 JUMP JUMPDEST PUSH1 0x40 MLOAD DUP1 SWAP2 SUB SWAP1 RETURN JUMPDEST PUSH1 0x0 DUP1 SLOAD SWAP1 PUSH2 0x100 EXP SWAP1 DIV PUSH1 0xFF AND DUP2 JUMP JUMPDEST PUSH1 0x0 DUP1 NUMBER BLOCKHASH SWAP1 POP PUSH1 0x0 TIMESTAMP DUP3 CALLER PUSH1 0x40 MLOAD PUSH1 0x20 ADD PUSH2 0xA6 SWAP4 SWAP3 SWAP2 SWAP1 PUSH2 0x20F JUMP JUMPDEST PUSH1 0x40 MLOAD PUSH1 0x20 DUP2 DUP4 SUB SUB DUP2 MSTORE SWAP1 PUSH1 0x40 MSTORE DUP1 MLOAD SWAP1 PUSH1 0x20 ADD KECCAK256 PUSH1 0x0 SHR SWAP1 POP PUSH1 0x1 PUSH1 0x14 DUP3 PUSH2 0xD0 SWAP2 SWAP1 PUSH2 0x27B JUMP JUMPDEST PUSH2 0xDA SWAP2 SWAP1 PUSH2 0x2DB JUMP JUMPDEST PUSH1 0x0 DUP1 PUSH2 0x100 EXP DUP2 SLOAD DUP2 PUSH1 0xFF MUL NOT AND SWAP1 DUP4 PUSH1 0xFF AND MUL OR SWAP1 SSTORE POP PUSH1 0x0 DUP1 SLOAD SWAP1 PUSH2 0x100 EXP SWAP1 DIV PUSH1 0xFF AND SWAP3 POP POP POP SWAP1 JUMP JUMPDEST PUSH1 0x0 PUSH1 0xFF DUP3 AND SWAP1 POP SWAP2 SWAP1 POP JUMP JUMPDEST PUSH2 0x11E DUP2 PUSH2 0x108 JUMP JUMPDEST DUP3 MSTORE POP POP JUMP JUMPDEST PUSH1 0x0 PUSH1 0x20 DUP3 ADD SWAP1 POP PUSH2 0x139 PUSH1 0x0 DUP4 ADD DUP5 PUSH2 0x115 JUMP JUMPDEST SWAP3 SWAP2 POP POP JUMP JUMPDEST PUSH1 0x0 DUP2 SWAP1 POP SWAP2 SWAP1 POP JUMP JUMPDEST PUSH1 0x0 DUP2 SWAP1 POP SWAP2 SWAP1 POP JUMP JUMPDEST PUSH2 0x164 PUSH2 0x15F DUP3 PUSH2 0x13F JUMP JUMPDEST PUSH2 0x149 JUMP JUMPDEST DUP3 MSTORE POP POP JUMP JUMPDEST PUSH1 0x0 DUP2 SWAP1 POP SWAP2 SWAP1 POP JUMP JUMPDEST PUSH1 0x0 DUP2 SWAP1 POP SWAP2 SWAP1 POP JUMP JUMPDEST PUSH2 0x18F PUSH2 0x18A DUP3 PUSH2 0x16A JUMP JUMPDEST PUSH2 0x174 JUMP JUMPDEST DUP3 MSTORE POP POP JUMP JUMPDEST PUSH1 0x0 PUSH20 0xFFFFFFFFFFFFFFFFFFFFFFFFFFFFFFFFFFFFFFFF DUP3 AND SWAP1 POP SWAP2 SWAP1 POP JUMP JUMPDEST PUSH1 0x0 PUSH2 0x1C0 DUP3 PUSH2 0x195 JUMP JUMPDEST SWAP1 POP SWAP2 SWAP1 POP JUMP JUMPDEST PUSH1 0x0 DUP2 PUSH1 0x60 SHL SWAP1 POP SWAP2 SWAP1 POP JUMP JUMPDEST PUSH1 0x0 PUSH2 0x1DF DUP3 PUSH2 0x1C7 JUMP JUMPDEST SWAP1 POP SWAP2 SWAP1 POP JUMP JUMPDEST PUSH1 0x0 PUSH2 0x1F1 DUP3 PUSH2 0x1D4 JUMP JUMPDEST SWAP1 POP SWAP2 SWAP1 POP JUMP JUMPDEST PUSH2 0x209 PUSH2 0x204 DUP3 PUSH2 0x1B5 JUMP JUMPDEST PUSH2 0x1E6 JUMP JUMPDEST DUP3 MSTORE POP POP JUMP JUMPDEST PUSH1 0x0 PUSH2 0x21B DUP3 DUP7 PUSH2 0x153 JUMP JUMPDEST PUSH1 0x20 DUP3 ADD SWAP2 POP PUSH2 0x22B DUP3 DUP6 PUSH2 0x17E JUMP JUMPDEST PUSH1 0x20 DUP3 ADD SWAP2 POP PUSH2 0x23B DUP3 DUP5 PUSH2 0x1F8 JUMP JUMPDEST PUSH1 0x14 DUP3 ADD SWAP2 POP DUP2 SWAP1 POP SWAP5 SWAP4 POP POP POP POP JUMP JUMPDEST PUSH32 0x4E487B7100000000000000000000000000000000000000000000000000000000 PUSH1 0x0 MSTORE PUSH1 0x12 PUSH1 0x4 MSTORE PUSH1 0x24 PUSH1 0x0 REVERT JUMPDEST PUSH1 0x0 PUSH2 0x286 DUP3 PUSH2 0x13F JUMP JUMPDEST SWAP2 POP PUSH2 0x291 DUP4 PUSH2 0x13F JUMP JUMPDEST SWAP3 POP DUP3 PUSH2 0x2A1 JUMPI PUSH2 0x2A0 PUSH2 0x24C JUMP JUMPDEST JUMPDEST DUP3 DUP3 MOD SWAP1 POP SWAP3 SWAP2 POP POP JUMP JUMPDEST PUSH32 0x4E487B7100000000000000000000000000000000000000000000000000000000 PUSH1 0x0 MSTORE PUSH1 0x11 PUSH1 0x4 MSTORE PUSH1 0x24 PUSH1 0x0 REVERT JUMPDEST PUSH1 0x0 PUSH2 0x2E6 DUP3 PUSH2 0x13F JUMP JUMPDEST SWAP2 POP PUSH2 0x2F1 DUP4 PUSH2 0x13F JUMP JUMPDEST SWAP3 POP DUP3 DUP3 ADD SWAP1 POP DUP1 DUP3 GT ISZERO PUSH2 0x309 JUMPI PUSH2 0x308 PUSH2 0x2AC JUMP JUMPDEST JUMPDEST SWAP3 SWAP2 POP POP JUMP INVALID LOG2 PUSH5 0x6970667358 0x22 SLT KECCAK256 DUP12 OR DIV 0xA9 PUSH27 0x43BADE9A58A562BD46EE1CEBEDF1E5C7CBD1E26242F6E804572C4D PUSH5 0x736F6C6343 STOP ADDMOD GT STOP CALLER "},"methodIdentifiers":{"Generate_Number()":"9897c240","rand_num()":"678892c0"}}}}}